:020000040000FA
:100000000C9463000C948B000C948B000C948B006C
:100010000C948B000C948B000C948B000C948B0034
:100020000C948B000C948B000C948B000C948B0024
:100030000C948B000C948B000C948B000C948B0014
:100040000C94BE050C948B000C948C050C946605E6
:100050000C948B000C948B000C948B000C948B00F4
:100060000C948B000C948B000000000024002700EF
:100070002A0000000000250028002B0000000000DE
:1000800023002600290004040404040404040202DA
:100090000202020203030303030301020408102007
:1000A0004080010204081020010204081020000012
:1000B0000008000201000003040700000000000027
:1000C00000000806AF0A11241FBECFEFD8E0DEBF44
:1000D000CDBF23E0AAE7B2E001C01D92AC34B20765
:1000E000E1F712E0A0E0B1E0E2EEFFE102C005902E
:1000F0000D92AA37B107D9F710E0C2E6D0E004C0EC
:100100002197FE010E94CD0DC136D107C9F70E948B
:1001100066060C94E40F0C9400000895AF92BF9211
:10012000CF92DF92EF92FF920F931F93CF93DF93C3
:100130006C017B018B01040F151FEB015E01AE18F2
:10014000BF08C017D10759F06991D601ED91FC9114
:100150000190F081E02DC6010995892B79F7C50141
:10016000DF91CF911F910F91FF90EF90DF90CF9093
:10017000BF90AF900895FC014481558160817181E9
:1001800087E892E00C948E00FC01538D448D252F5E
:1001900030E0842F90E0821B930B541710F0CF9621
:1001A000089501970895FC01918D828D981761F053
:1001B000A28DAE0FBF2FB11D5D968C91928D9F5F6A
:1001C0009F73928F90E008958FEF9FEF08952FB760
:1001D000F8948091830290918402A0918502B0915D
:1001E00086022FBF80938F0290939002A09391027A
:1001F000B093920287E892E00E94D30097FF26C056
:100200002FB7F8948091830290918402A091850287
:10021000B09186022FBF40918F0250919002609161
:10022000910270919202841B950BA60BB70B409123
:100230008B0250918C0260918D0270918E02841716
:100240009507A607B707B0F28FEF9FEF0895FC015F
:10025000918D828D981731F0828DE80FF11D858D7B
:1002600090E008958FEF9FEF0895FC01918D228D0E
:10027000892F90E0805C9F4F821B91098F73992793
:10028000089587E892E00E94350121E0892B09F466
:1002900020E0822F089580E090E0892B29F00E94D1
:1002A000410181110C9400000895FC01A48DA80F58
:1002B000B92FB11DA35ABF4F2C91848D90E00196A8
:1002C0008F739927848FA689B7892C93A089B189C8
:1002D0008C91837080648C93938D848D981306C069
:1002E0000288F389E02D80818F7D80830895EF92CD
:1002F000FF920F931F93CF93DF93EC0181E0888FE0
:100300009B8D8C8D98131AC0E889F989808185FFAF
:1003100015C09FB7F894EE89FF896083E889F98951
:1003200080818370806480839FBF81E090E0DF9153
:10033000CF911F910F91FF90EF900895F62E0B8DA6
:1003400010E00F5F1F4F0F731127E02E8C8D8E1161
:100350000CC00FB607FCFACFE889F989808185FFC8
:10036000F5CFCE010E945501F1CFEB8DEC0FFD2FA3
:10037000F11DE35AFF4FF0829FB7F8940B8FEA8983
:10038000FB8980818062CFCFCF93DF93EC01888D92
:100390008823B9F0AA89BB89E889F9898C9185FD00
:1003A00003C0808186FD0DC00FB607FCF7CF8C918E
:1003B00085FFF2CF808185FFEDCFCE010E945501F0
:1003C000E9CFDF91CF910895833081F028F4813017
:1003D00099F08230A9F008958730A9F08830C9F0EB
:1003E0008430B1F4809180008F7D03C080918000C3
:1003F0008F7780938000089584B58F7784BD0895AA
:1004000084B58F7DFBCF8091B0008F778093B00053
:1004100008958091B0008F7DF9CF1F93CF93DF9324
:10042000282F30E0F901E255FF4F8491F901E6569B
:10043000FF4FD491F901EA57FF4FC491CC23A9F0A3
:10044000162F81110E94E401EC2FF0E0EE0FFF1F48
:10045000EE58FF4FA591B4918FB7F894EC9111111C
:1004600008C0D095DE23DC938FBFDF91CF911F9121
:100470000895DE2BF8CFCF93DF9390E0FC01E65692
:10048000FF4F24918A579F4FFC0184918823D1F01C
:1004900090E0880F991FFC01E859FF4FA591B49196
:1004A000FC01EE58FF4FC591D49161110EC09FB76A
:1004B000F8948C91E22FE0958E238C932881E2238F
:1004C000E8839FBFDF91CF9108958FB7F894EC91A7
:1004D000E22BEC938FBFF6CF3FB7F89480917B026D
:1004E00090917C02A0917D02B0917E0226B5A89BDE
:1004F00005C02F3F19F00196A11DB11D3FBFBA2FB6
:10050000A92F982F8827BC01CD01620F711D811D75
:10051000911D42E0660F771F881F991F4A95D1F7FA
:1005200008958F929F92AF92BF92CF92DF92EF92F7
:10053000FF924B015C010E946C026B017C010E94E6
:100540006C026C197D098E099F09683E7340810514
:100550009105A8F321E0821A9108A108B10888EE5C
:10056000C80E83E0D81EE11CF11C81149104A10483
:10057000B10429F7FF90EF90DF90CF90BF90AF903C
:100580009F908F900895FC0101900020E9F731972A
:10059000AF01481B590BBC0187E892E00C948E0018
:1005A0008F929F92AF92BF920F931F93CF93DF933F
:1005B000CDB7DEB7A1970FB6F894DEBF0FBECDBFA3
:1005C00019A2423008F44AE08E010F5D1F4F842EBD
:1005D000912CB12CA12CA50194010E94AB0DE62F0A
:1005E000B901CA01EA30F4F4E05DD801EE938D015F
:1005F000232B242B252B79F790E080E0109719F01E
:10060000CD010E94C302A1960FB6F894DEBF0FBEC3
:10061000CDBFDF91CF911F910F91BF90AF909F9071
:100620008F900895E95CE1CFCF93DF930E94C302DE
:10063000EC0188E191E00E94C3028C0F9D1FDF91C5
:10064000CF910895CF93DF930E94BB00EC0188E126
:1006500091E00E94C3028C0F9D1FDF91CF910895FE
:10066000DF92EF92FF920F931F93CF93DF93DC0102
:1006700014962D913C916217730750F08FEF9FEF06
:10068000DF91CF911F910F91FF90EF90DF90089530
:100690008C01EB012196DC01ED91FC911197EC0F9F
:1006A000FD1FD0801082ED90FC9060E270E0C701E9
:1006B0000E94D90FCE0DDF1DD8820097F9F2F80104
:1006C00020813181821B930BDBCFCF93DF93FC0121
:1006D000248135816217730788F49B01C081D18121
:1006E00060E270E0CE01820F931F0E94BE0F009760
:1006F00029F08C1B9D0BDF91CF9108958FEF9FEF19
:10070000FACFE0912A03F0912B03DC016D917C91EB
:100710003097D9F061157105A9F480912E0390915D
:100720002F03892BA9F0808190E00895FC0184813A
:100730009581892B69F0DB018C9190E091958195F1
:1007400091090895CF010C94C90F6115710571F7D6
:1007500090E080E00895FC0124813581232B39F459
:1007600021E0FB018081882349F020E007C08081DF
:1007700091810E94C90F21E0892BB9F7822F08953A
:100780000F931F93CF93DF938C01EB01FC018081CA
:1007900091810097E1F06881798161157105A9F077
:1007A000428153812C813D814217530770F00E9492
:1007B000D20F8C819D81F801958384831D821C82D8
:1007C000DF91CF911F910F9108950E946F0E888144
:1007D0009981F801918380838A819B8193838283AD
:1007E0008C819D8195838483198218821B821A8251
:1007F000E5CFCF93DF93EC0188819981009711F0C9
:100800000E946F0E198218821D821C821B821A821E
:10081000DF91CF910895FC0180819181009711F0C3
:100820000C946F0E08950F931F93CF93DF93EC01F9
:1008300088819981009759F02A813B8126173707D3
:1008400030F081E0DF91CF911F910F9108958B01DE
:100850006F5F7F4F0E94F80E009759F0998388834D
:100860001B830A832C813D81232B59F7FC011082C5
:10087000E8CF80E0E7CFEF92FF920F931F93CF93E3
:10088000DF936115710541F480E0DF91CF911F91F5
:100890000F91FF90EF90089541155105B1F07B0144
:1008A000EC010C811D81040F151FB8010E94130477
:1008B000882351F3288139818C819D81B701820F72
:1008C000931F0E94D20F1D830C8381E0DECFCF9354
:1008D000DF93EC01FB0101900020E9F73197AF01B4
:1008E000461B570B0E943B04811103C0CE010E949E
:1008F000F903CE01DF91CF910895CF93DF93EC01FF
:10090000FB0144815581608171810E943B0481110A
:1009100003C0CE010E94F903CE01DF91CF9108956B
:10092000EF92FF920F931F93CF93DF93EC017B0124
:100930008A01BA010E94130481110BC0CE010E94EA
:10094000F903CE01DF91CF911F910F91FF90EF90AE
:1009500008951D830C83B701888199810E94D20F6D
:10096000F0CFEF92FF920F931F93CF93DF93CDB70A
:10097000DEB762970FB6F894DEBF0FBECDBF8C0115
:10098000CB01F80111821082138212821582148227
:100990004AE09E012F5F3F4F7901B9010E94EE0AA4
:1009A000F70101900020E9F73197AF014E195F0977
:1009B000B701C8010E94900462960FB6F894DEBF9A
:1009C0000FBECDBFDF91CF911F910F91FF90EF90A0
:1009D0000895CF93DF93EC01FB018617970749F049
:1009E000608171816115710541F0448155810E94DA
:1009F0009004CE01DF91CF9108950E94F903F9CFC1
:100A0000FC01118210821382128215821482FB0172
:100A100001900020E9F73197AF01461B570B0C946A
:100A20009004AF92BF92CF92DF92EF92FF920F931A
:100A30001F93CF93DF937C016B015A018901241727
:100A4000350720F48B2D5901042F182F6AE171E02E
:100A5000C7010E940005D6011496CD91DC91AC1619
:100A6000BD0620F50C171D0708F4E801D601ED912D
:100A7000FC911197EC0FFD1F108110826D917C91FC
:100A80006A0D7B1D61157105E9F0FB0101900020E5
:100A9000E9F73197AF01461B570BC7010E9490043D
:100AA000F60180819181C80FD91F1883C701DF919A
:100AB000CF911F910F91FF90EF90DF90CF90BF905B
:100AC000AF900895C7010E94F903EACF1F920F92D9
:100AD0000FB60F9211242F933F934F935F936F9311
:100AE0007F938F939F93AF93BF93EF93FF9387E889
:100AF00092E00E945501FF91EF91BF91AF919F91BC
:100B00008F917F916F915F914F913F912F910F90B6
:100B10000FBE0F901F9018951F920F920FB60F9255
:100B200011242F938F939F93EF93FF93E09197025C
:100B3000F09198028081E0919D02F0919E0282FDE9
:100B40001BC090818091A0028F5F8F732091A102C2
:100B5000821741F0E091A002F0E0E957FD4F958F38
:100B60008093A002FF91EF919F918F912F910F9011
:100B70000FBE0F901F9018958081F4CF1F920F9297
:100B80000FB60F9211242F933F938F939F93AF93A0
:100B9000BF938091830290918402A0918502B091CD
:100BA000860230917A0223E0230F2D3758F5019603
:100BB000A11DB11D20937A02809383029093840239
:100BC000A0938502B093860280917B0290917C0273
:100BD000A0917D02B0917E020196A11DB11D80936E
:100BE0007B0290937C02A0937D02B0937E02BF9122
:100BF000AF919F918F913F912F910F900FBE0F90CA
:100C00001F90189526E8230F0296A11DB11DD2CF83
:100C10000F931F93CF93DF9310928A021092890251
:100C200088EE93E0A0E0B0E080938B0290938C027A
:100C3000A0938D02B0938E028AE091E09093880297
:100C40008093870285EC90E09093940280939302C6
:100C500084EC90E0909396028093950280EC90E073
:100C6000909398028093970281EC90E090939A027F
:100C70008093990282EC90E090939C0280939B0277
:100C800086EC90E090939E0280939D021092A002C9
:100C90001092A1021092A2021092A3026BE171E0E5
:100CA00082E493E00E940005C4E2D3E002E413E092
:100CB0006AE171E0CE010E94000526960C171D071F
:100CC000B9F7DF91CF911F910F910895CF93DF93E3
:100CD000CDB7DEB72C970FB6F894DEBF0FBECDBFF1
:100CE000789484B5826084BD84B5816084BD85B507
:100CF000826085BD85B5816085BD80916E00816013
:100D000080936E00109281008091810082608093B8
:100D100081008091810081608093810080918000BA
:100D20008160809380008091B10084608093B100E5
:100D30008091B00081608093B00080917A008460DF
:100D400080937A0080917A00826080937A0080910B
:100D50007A00816080937A0080917A008068809325
:100D60007A001092C100E0919702F091980282E01F
:100D70008083E0919302F09194021082E0919502B9
:100D8000F091960287E0808310929F02E0919B028F
:100D9000F0919C0286E08083E0919902F0919A02A2
:100DA000808180618083E0919902F0919A02808134
:100DB00088608083E0919902F0919A028081806836
:100DC0008083E0919902F0919A0280818F7D8083E7
:100DD00081E090E0A0E0B0E080938B0290938C02E1
:100DE000A0938D02B0938E0261E082E00E943B02EC
:100DF00060E084E00E943B0260E08EE00E943B02E3
:100E000061E084E00E940D0230E4232E46E0342E9F
:100E100000918102109182021093800200937F0260
:100E2000E2EBF0E08491EEE9F0E0E490EAE8F0E053
:100E3000F490F1100BC01092820210928102012BEB
:100E4000F1F08DE291E00E94140319C081110E941B
:100E5000E401EF2DF0E0EE0FFF1FE458FF4FA591E6
:100E6000B4918C91E82239F381E090E09093820272
:100E7000809381028FE191E00130110521F787E82D
:100E800092E00E943501181619060CF0FBC06AE1C9
:100E900071E0CE0101960E9400050E94E70097FDD7
:100EA0000CC08F83188641E050E0BE01695F7F4F20
:100EB000CE0101960E943B04F0CFBE016F5F7F4FD1
:100EC00082E493E00E94C003CE0101960E940B04CD
:100ED00018861F821A8619861C861B8662E473E0B8
:100EE000CE0107960E94E9046B857C8561507109EB
:100EF000CE0107960E943003019609F401C16B856B
:100F00007C8561507109CE0107960E9430037C01F7
:100F100070E060E0CE0107960E9465038C018E159B
:100F20009F0509F4BEC084E2682E83E0782E10E0AD
:100F300000E0B12CA12CEE24EA94FE2CB7016F5FE7
:100F40007F4FCE0107960E9465037C019C01A5019D
:100F5000BE01695F7F4FCE0101960E941105BE015F
:100F60006F5F7F4FC3010E94C003CE0101960E94B4
:100F70000B042801FFEF4F1A5F0A57012FEFA21A47
:100F8000B20A6B857C8561507109CE0107960E947B
:100F900030034C01B501CE0107960E9465036C0138
:100FA00086E0680E711CC814D90409F078C0960157
:100FB000A501BE01695F7F4FCE0101960E94110518
:100FC000349CC001359C900D1124BE016F5F7F4F92
:100FD0008C5D9C4F0E94C003CE0101960E940B04C1
:100FE0002B853C85A6014F5F5F4FBE01695F7F4F38
:100FF000CE0101960E94110598012E5F3F4F329E4F
:10100000C001339E900D1124BE016F5F7F4F8C5D38
:101010009C4F0E94C003CE0101960E940B040D5FFD
:101020001F4FCE0107960E940B040130110509F0F5
:1010300085C16BE371E082E493E00E94AB038823F7
:1010400009F468C01A8219821C821B821E821D82CA
:1010500062E473E0CE0101960E94E9046EE371E060
:10106000CE0101960E9467040E94BB00CE0101964A
:101070000E940B0481E491E00E94140361E082E08D
:101080000E940D0280E090E0892B09F4C1CE0E94FD
:101090004101882309F4B8CE0E940000B5CE820138
:1010A0004DCF9C0150E040E0BE01695F7F4FCE0113
:1010B00001960E941105BE016F5F7F4F84E293E0AD
:1010C0000E94C003CE0101960E940B042B853C8533
:1010D000A8014F5F5F4FBE01695F7F4FCE01019650
:1010E0000E941105BE016F5F7F4F8AE293E00E946C
:1010F000C003CE0101960E940B0402E010E091CFE4
:10110000BE01695F7F4F84E293E00E94E90401E041
:1011100010E087CF6BE171E082E493E00E94AB03C3
:101120008823F1F01A8219821C821B821E821D8282
:1011300062E473E0CE0101960E94E9046EE371E07F
:10114000CE0101960E9467040E94BB00CE01019669
:101150000E940B0488E491E00E94140360E08FCFAA
:1011600060E571E082E493E00E94AB03882309F418
:10117000CAC020927C0080917A00806480937A00BB
:1011800080917A0086FDFCCF809178006091790093
:10119000762F682F072E000C880B990B0E943F0BAF
:1011A00020E030E04AEF53E40E949E0B20E030EC58
:1011B0004FE754E40E94000D6B017C014B015C0180
:1011C000AC019B010E94A60D882349F087E591E0C0
:1011D0000E94C30288E191E00E94C30253CF26011E
:1011E0003701E89477F82FEF3FEF4FE75FE7C30150
:1011F000B2010E94A60D81110DC02FEF3FEF4FE706
:101200005FE7C301B2010E94380B18161CF48BE58E
:1012100091E0DECF2FEF3FEF4FE75FE4C701B6016C
:101220000E94A10D18161CF48FE591E0D1CF2FEF8D
:101230003FEF4FE75FECC701B6010E94380B87FD17
:10124000F3CF20E030E0A901C701B6010E94380BBE
:1012500087FF0BC06DE287E892E00E9477014601AC
:101260005701B7FAB094B7F8B0942AE037ED43EAE3
:101270005BE3C501B4010E94940C4B015C010E9428
:10128000720D6B017C010E943D0B9B01AC01C501FD
:10129000B4010E94930C4B015C014AE0C701B60106
:1012A0000E94D0026EE287E892E00E94770120E07F
:1012B00030E040E251E4C501B4010E949E0B4B01B5
:1012C0005C010E94720D6B01F12CE12C4AE0C70118
:1012D000B6010E94D002C701B6010E943D0B9B01DE
:1012E000AC01C501B4010E94930C20E030E040E263
:1012F00051E40E949E0B0E94720D90E080E04AE053
:101300000E94D00267CF63E671E0CE0101960E9491
:10131000000562E473E0CE0101960E947D0463E65D
:1013200071E00E94670465E671E00E9467040E9414
:101330002203CE0101960E940B04A4CE02301105B7
:1013400009F0FAC06FE771E084E293E00E94AB031A
:10135000882309F463C080912A0390912B0300979E
:1013600009F4C5C00E94C70A8B016115710509F413
:10137000D7C0CE0101960E94B10420912E03309176
:101380002F038D819E812817390741F4CE010196E4
:101390000E948103FF24F394892B09F0F12CCE01E4
:1013A00001960E940B04FF2009F4BAC017FFA3C0E6
:1013B000119501951109B801CE0101960E94B10461
:1013C00065E871E0CE0107960E940005BE016F5FDF
:1013D0007F4FCE0107960E947D0465E971E00E946F
:1013E00067040E942203CE0107960E940B04CE01DF
:1013F00001960E940B04E8EEF3E00E9FB0010F9FF0
:10140000700D1E9F700D1124072E000C880B990B78
:101410000E9491028CEC91E00E9414036DEE71E049
:1014200084E293E00E94AB03882309F42BCE8091E1
:101430002A0390912B03009709F475C00E94C70AF4
:101440007B016115710509F472C0CE0101960E94FD
:10145000B10420912E0330912F038D819E81281796
:10146000390739F4CE0101960E94810311E0892BDE
:1014700009F010E0CE0101960E940B04112309F43B
:1014800056C081EF91E0F7FC54C066E172E0CE01F6
:1014900001960E94000562E473E0CE0101960E946D
:1014A0007D0467E272E00E9467040E942203CE017D
:1014B00001960E940B0410E000E061E082E00E94CF
:1014C0000D0264E670E080E090E00E94910260E02E
:1014D00082E00E940D0264E670E080E090E00E94ED
:1014E00091020F5F1F4F0E151F053CF3CBCD60E03F
:1014F00070E0CB0139CFB801CE0101960E94B10452
:1015000065E871E0CE0107960E940005BE016F5F9D
:101510007F4FCE0107960E947D046BEB71E05FCF99
:1015200082ED91E079CF60E070E0CB0189CF8EE26F
:1015300092E00E941403A6CD63E671E0CE0101960D
:101540000E94000562E473E0CE0101960E947D04D2
:1015500063E671E00E9467046FE472E0E6CE8CE31C
:1015600093E00E940B0486E393E00E940B0480E367
:1015700093E00E940B048AE293E00E940B0484E251
:1015800093E00E940B0482E493E00C940B041F93FD
:10159000FC0199278827BC01E89411911032E9F3E6
:1015A000193010F01E30C8F31B3251F01D3249F4CF
:1015B000689406C00E94F90A610F711D811D911D7A
:1015C000119110531A30B0F33EF4909580957095B8
:1015D00061957F4F8F4F9F4F1F910895BB274A30D2
:1015E00031F4992322F4BDE2909581959F4F0C949C
:1015F0000F0B592F482F372F262F660F771F881F65
:10160000991F660F771F881F991F620F731F841F12
:10161000951F660F771F881F991F0895BB27FB0131
:101620005527AA27880F991FAA1FA41710F0A41BDB
:1016300083955051B9F7A05DAA3308F0A95DA19335
:10164000009779F7B111B1931192CB010C94280B4B
:10165000DC01FC01672F71917723E1F7329704C019
:101660007C916D9370836291AE17BF07C8F30895A4
:101670000E947A0B08F481E00895E89409C097FB72
:101680003EF490958095709561957F4F8F4F9F4F59
:101690009923A9F0F92F96E9BB279395F69587959D
:1016A00077956795B795F111F8CFFAF4BB0F11F460
:1016B00060FF1BC06F5F7F4F8F4F9F4F16C0882307
:1016C00011F096E911C0772321F09EE8872F762F3D
:1016D00005C0662371F096E8862F70E060E02AF07E
:1016E0009A95660F771F881FDAF7880F969587956A
:1016F00097F90895990F0008550FAA0BE0E8FEEF3F
:1017000016161706E807F907C0F012161306E407C5
:10171000F50798F0621B730B840B950B39F40A26BE
:1017200061F0232B242B252B21F408950A2609F49C
:10173000A140A6958FEF811D811D08950E94B10BD8
:101740000C94220C0E94140C38F00E941B0C20F008
:10175000952311F00C940B0C0C94110C11240C9487
:10176000560C0E94330C70F3959FC1F3950F50E017
:10177000551F629FF001729FBB27F00DB11D639F43
:10178000AA27F00DB11DAA1F649F6627B00DA11DE9
:10179000661F829F2227B00DA11D621F739FB00D8F
:1017A000A11D621F839FA00D611D221F749F3327FF
:1017B000A00D611D231F849F600D211D822F762F98
:1017C0006A2F11249F5750409AF0F1F088234AF075
:1017D000EE0FFF1FBB1F661F771F881F91505040E1
:1017E000A9F79E3F510580F00C940B0C0C94560CFD
:1017F0005F3FE4F3983ED4F3869577956795B79568
:10180000F795E7959F5FC1F7FE2B880F911D969581
:10181000879597F9089597F99F6780E870E060E0F1
:1018200008959FEF80EC089500240A941616170679
:1018300018060906089500240A94121613061406C1
:1018400005060895092E0394000C11F4882352F024
:10185000BB0F40F4BF2B11F460FF04C06F5F7F4FDC
:101860008F4F9F4F089557FD9058440F551F59F0C3
:101870005F3F71F04795880F97FB991F61F09F3F7D
:1018800079F087950895121613061406551FF2CFA6
:101890004695F1DF08C0161617061806991FF1CFF6
:1018A00086957105610508940895E894BB2766271D
:1018B0007727CB0197F908952F923F924F925F922D
:1018C0006F927F928F929F92AF92BF92CF92DF9250
:1018D000EF92FF920F931F93CF93DF93CDB7DEB7B5
:1018E000CA1BDB0B0FB6F894DEBF0FBECDBF099449
:1018F0002A88398848885F846E847D848C849B84A0
:10190000AA84B984C884DF80EE80FD800C811B81AD
:10191000AA81B981CE0FD11D0FB6F894DEBF0FBEDC
:10192000CDBFED0108955058BB27AA270E94AB0CEC
:101930000C94220C0E94140C38F00E941B0C20F016
:1019400039F49F3F19F426F40C94110C0EF4E09531
:10195000E7FB0C940B0CE92F0E94330C58F3BA17D9
:10196000620773078407950720F079F4A6F50C94B5
:10197000550C0EF4E0950B2EBA2FA02D0B01B901DA
:1019800090010C01CA01A0011124FF27591B99F0F5
:10199000593F50F4503E68F11A16F040A22F232F01
:1019A000342F4427585FF3CF469537952795A79551
:1019B000F0405395C9F77EF41F16BA0B620B730BF8
:1019C000840BBAF09150A1F0FF0FBB1F661F771F69
:1019D000881FC2F70EC0BA0F621F731F841F48F41E
:1019E000879577956795B795F7959E3F08F0B0CFA7
:1019F0009395880F08F09927EE0F9795879508958E
:101A00000E94140D0C94220C0E941B0C58F00E9492
:101A1000140C40F029F45F3F29F00C940B0C511189
:101A20000C94560C0C94110C0E94330C68F39923FF
:101A3000B1F3552391F3951B550BBB27AA276217CA
:101A40007307840738F09F5F5F4F220F331F441FD7
:101A5000AA1FA9F335D00E2E3AF0E0E832D091500B
:101A60005040E695001CCAF72BD0FE2F29D0660FF8
:101A7000771F881FBB1F261737074807AB07B0E83B
:101A800009F0BB0B802DBF01FF2793585F4F3AF041
:101A90009E3F510578F00C940B0C0C94560C5F3F54
:101AA000E4F3983ED4F3869577956795B795F795C7
:101AB0009F5FC9F7880F911D9695879597F90895AF
:101AC000E1E0660F771F881FBB1F6217730784074B
:101AD000BA0720F0621B730B840BBA0BEE1F88F75A
:101AE000E09508950E943B0C88F09F5798F0B92F1D
:101AF0009927B751B0F0E1F0660F771F881F991F43
:101B00001AF0BA95C9F714C0B13091F00E94550C83
:101B1000B1E008950C94550C672F782F8827B85F93
:101B200039F0B93FCCF3869577956795B395D9F79A
:101B30003EF490958095709561957F4F8F4F9F4FA4
:101B400008950E947A0B08F48FEF08950E947A0B93
:101B5000880B990B0895A1E21A2EAA1BBB1BFD014D
:101B60000DC0AA1FBB1FEE1FFF1FA217B307E4077C
:101B7000F50720F0A21BB30BE40BF50B661F771FD4
:101B8000881F991F1A9469F76095709580959095B4
:101B90009B01AC01BD01CF010895EE0FFF1F059021
:101BA000F491E02D09940F931F93CF93DF9382302C
:101BB000910510F482E090E0E0914A03F0914B032C
:101BC00030E020E0B0E0A0E0309799F42115310535
:101BD00009F44AC0281B390B24303105D8F58A8115
:101BE0009B816115710589F1FB0193838283FE015D
:101BF00011C0408151810281138148175907E0F0DB
:101C00004817590799F4109761F012960C931297A0
:101C100013961C933296CF01DF91CF911F910F91B4
:101C2000089500934A0310934B03F4CF2115310517
:101C300051F04217530738F0A901DB019A01BD01A9
:101C4000DF01F801C1CFEF01F9CF90934B038093EF
:101C50004A03CDCFFE01E20FF31F819391932250EF
:101C6000310939832883D7CF209148033091490324
:101C7000232B41F420910201309103013093490359
:101C80002093480320910001309101012115310575
:101C900041F42DB73EB74091040150910501241B3A
:101CA000350BE0914803F0914903E217F307A0F4E4
:101CB0002E1B3F0B2817390778F0AC014E5F5F4FA2
:101CC0002417350748F04E0F5F1F50934903409388
:101CD0004803819391939FCFF0E0E0E09CCFCF93B6
:101CE000DF930097E9F0FC01329713821282A091F2
:101CF0004A03B0914B03ED0130E020E01097A1F4CE
:101D000020813181820F931F209148033091490334
:101D10002817390709F061C0F0934903E09348039D
:101D2000DF91CF910895EA01CE17DF07E8F54A81E8
:101D30005B819E0141155105B1F7E901FB83EA83FF
:101D400049915991C40FD51FEC17FD0761F48081AB
:101D500091810296840F951FE9019983888382817E
:101D600093819B838A83F0E0E0E012968D919C91B1
:101D700013970097B9F52D913C911197CD010296DB
:101D8000820F931F20914803309149032817390788
:101D900039F6309751F510924B0310924A03B093E5
:101DA0004903A0934803BCCFD383C28340815181B0
:101DB000840F951FC817D90761F44E5F5F4F888164
:101DC0009981480F591F518340838A819B81938356
:101DD00082832115310509F0B0CFF0934B03E093D6
:101DE0004A039ECFFD01DC01C0CF13821282D7CF00
:101DF000B0E0A0E0EEEFFEE00C945E0C8C010097EA
:101E000051F4CB010E94D30D8C01C801CDB7DEB7D0
:101E1000E0E10C947A0CFC01E60FF71F9C012250C4
:101E20003109E217F30708F49DC0D901CD91DC9187
:101E30001197C617D70798F0C530D10530F3CE01FA
:101E400004978617970708F3C61BD70B2297C193F1
:101E5000D1936D937C93CF010E946F0ED6CF5B011F
:101E6000AC1ABD0A4C018C0E9D1EA0914A03B09184
:101E70004B03512C412CF12CE12C109731F5809122
:101E80004803909149038815990509F05CC04616EE
:101E9000570608F058C08091000190910101009709
:101EA00041F48DB79EB74091040150910501841B08
:101EB000950BE817F90708F055C0F0934903E09334
:101EC0004803F90171836083A0CF8D919C91119794
:101ED00012966C90129713967C901397A815B905DB
:101EE00059F56C0142E0C40ED11CCA14DB0420F188
:101EF000AC014A195B09DA011296159780F06282EB
:101F0000738251834083D9016D937C93E114F10472
:101F100071F0D7011396FC93EE93129776CF229629
:101F20008C0F9D1FF90191838083F301EFCFF09314
:101F30004B03E0934A0369CF4816590608F42C0175
:101F40007D01D3019ACFCB010E94D30D7C01009774
:101F500049F0AE01B8010E94B50FC8010E946F0E92
:101F6000870153CF10E000E050CFFB01DC0102C03D
:101F700001900D9241505040D8F70895FC01819195
:101F8000861721F08823D9F7992708953197CF0133
:101F90000895FB01DC018D91019080190110D9F3A6
:101FA000990B0895FB01DC0101900D920020E1F7EF
:101FB0000895FC0181E090E00190061609F4CF013C
:101FC0000020D1F70197089510E0C2E6D0E004C0E8
:101FD000FE010E94CD0D2196C336D107C9F7F894B2
:101FE000FFCF00004C0380000000000077018E004E
:101FF000C400C4013501D30027010D0A006F6666D5
:1020000000696E70757420656E20616C746F006974
:102010006E70757420656E2062616A6F006F6E006D
:102020003A20004C4544204F4E004C4544204F463A
:10203000460073656E736F72006E616E00696E6646
:10204000006F7666002200204E6F20657320756E4B
:1020500020636F6D616E646F2076C3A16C69646FDD
:10206000006D6F746F72004D6F7669656E646F20DE
:102070006D6F746F7220002063656E74C3AD6D6503
:1020800074726F7320656E2073656E7469646F205F
:10209000636F6E74726172696F2E2E2E00206365FD
:1020A0006E74C3AD6D6574726F732E2E2E006C69E5
:1020B00073746F004461746F73206465206176618E
:1020C0006E636520696E76C3A16C69646F73006C82
:1020D000656400506F72206661766F722C20696EA5
:1020E000677265736120756E2076616C6F72207007
:1020F0006F73697469766F004C65642070617270EB
:10210000616465616E646F200020766563657300AD
:10211000446562657320696E6772657361722075CC
:102120006E206EC3BA6D65726F20656E7465726FD6
:1021300000204E6F2065786973746520756E20638A
:102140006F6D616E646F20636F6E2074616E746F6B
:0C215000732070616C6162726F7300009C
:107E0000112484B714BE81FFF0D085E080938100F7
:107E100082E08093C00088E18093C10086E0809377
:107E2000C20080E18093C4008EE0C9D0259A86E02C
:107E300020E33CEF91E0309385002093840096BBD3
:107E4000B09BFECF1D9AA8958150A9F7CC24DD24C4
:107E500088248394B5E0AB2EA1E19A2EF3E0BF2EE7
:107E6000A2D0813461F49FD0082FAFD0023811F036
:107E7000013811F484E001C083E08DD089C08234E0
:107E800011F484E103C0853419F485E0A6D080C0E4
:107E9000853579F488D0E82EFF2485D0082F10E0AE
:107EA000102F00270E291F29000F111F8ED06801E7
:107EB0006FC0863521F484E090D080E0DECF843638
:107EC00009F040C070D06FD0082F6DD080E0C81688
:107ED00080E7D80618F4F601B7BEE895C0E0D1E017
:107EE00062D089930C17E1F7F0E0CF16F0E7DF06D8
:107EF00018F0F601B7BEE89568D007B600FCFDCFD4
:107F0000A601A0E0B1E02C9130E011968C91119780
:107F100090E0982F8827822B932B1296FA010C0160
:107F200087BEE89511244E5F5F4FF1E0A038BF0790
:107F300051F7F601A7BEE89507B600FCFDCF97BE46
:107F4000E89526C08437B1F42ED02DD0F82E2BD052
:107F50003CD0F601EF2C8F010F5F1F4F84911BD097
:107F6000EA94F801C1F70894C11CD11CFA94CF0C13
:107F7000D11C0EC0853739F428D08EE10CD085E9AC
:107F80000AD08FE07ACF813511F488E018D01DD067
:107F900080E101D065CF982F8091C00085FFFCCF94
:107FA0009093C60008958091C00087FFFCCF809118
:107FB000C00084FD01C0A8958091C6000895E0E648
:107FC000F0E098E1908380830895EDDF803219F02E
:107FD00088E0F5DFFFCF84E1DECF1F93182FE3DFCA
:107FE0001150E9F7F2DF1F91089580E0E8DFEE27F6
:047FF000FF270994CA
:027FFE00040479
:00000001FF
